0142065900999992022041300004+49633+006233FM-12+036799999V0202101N00301001201C9006000199+01001+00951102701ADDAA106999999AY151011AY221011GA1051+001201071GE19AGL   +99999+99999GF108991051999001201999999MA1999999098181MD1310081+9999MW1021REMSYN004BUFR
0165065900999992022041400204+49627+006212FM-15+037699999V0201601N00211007321CN002800199+01001+00901999999ADDAW1101GA1081+007321999GE19AGL   +99999+99999GF199999081999007321999999MA1102601999999REMMET068METAR ELLX 010020Z AUTO 16004KT 2800 BR OVC024/// 10/09 Q1026 NOSIG=
0173065900999992022041500504+49627+006212FM-15+037699999V0201901V00211000301CN002000199+01001+00901999999ADDAW1101GA1081+000301999GE19AGL   +99999+99999GF199999081999000301999999MA1102601999999REMMET076METAR ELLX 010050Z AUTO 19004KT 160V230 2000 BR OVC001/// 10/09 Q1026 NOSIG=
0131065900999992022041601004+49633+006233FM-12+036799999V0201901N0020100030199002600199+00971+00941102711ADDAW1101AY111011AY211011GA1071+000301999GE19AGL   +99999+99999GF108991071999000301999999MA1999999098191MD1110101+9999REMSYN004BUFR